{
  "contractName": "crowd_funding",
  "abi": [
    {
      "inputs": [
        {
          "internalType": "uint256",
          "name": "_amount",
          "type": "uint256"
        },
        {
          "internalType": "uint256",
          "name": "_deadline",
          "type": "uint256"
        }
      ],
      "stateMutability": "nonpayable",
      "type": "constructor"
    },
    {
      "inputs": [
        {
          "internalType": "address",
          "name": "",
          "type": "address"
        }
      ],
      "name": "contributor",
      "outputs": [
        {
          "internalType": "uint256",
          "name": "",
          "type": "uint256"
        }
      ],
      "stateMutability": "view",
      "type": "function",
      "constant": true
    },
    {
      "inputs": [],
      "name": "deadline",
      "outputs": [
        {
          "internalType": "uint256",
          "name": "",
          "type": "uint256"
        }
      ],
      "stateMutability": "view",
      "type": "function",
      "constant": true
    },
    {
      "inputs": [],
      "name": "manager",
      "outputs": [
        {
          "internalType": "address",
          "name": "",
          "type": "address"
        }
      ],
      "stateMutability": "view",
      "type": "function",
      "constant": true
    },
    {
      "inputs": [],
      "name": "noOfrequest",
      "outputs": [
        {
          "internalType": "uint256",
          "name": "",
          "type": "uint256"
        }
      ],
      "stateMutability": "view",
      "type": "function",
      "constant": true
    },
    {
      "inputs": [],
      "name": "noofContributor",
      "outputs": [
        {
          "internalType": "uint256",
          "name": "",
          "type": "uint256"
        }
      ],
      "stateMutability": "view",
      "type": "function",
      "constant": true
    },
    {
      "inputs": [
        {
          "internalType": "uint256",
          "name": "",
          "type": "uint256"
        }
      ],
      "name": "request",
      "outputs": [
        {
          "internalType": "string",
          "name": "purpose",
          "type": "string"
        },
        {
          "internalType": "address payable",
          "name": "receipient",
          "type": "address"
        },
        {
          "internalType": "uint256",
          "name": "amount",
          "type": "uint256"
        },
        {
          "internalType": "uint256",
          "name": "noOfvote",
          "type": "uint256"
        }
      ],
      "stateMutability": "view",
      "type": "function",
      "constant": true
    },
    {
      "inputs": [],
      "name": "target",
      "outputs": [
        {
          "internalType": "uint256",
          "name": "",
          "type": "uint256"
        }
      ],
      "stateMutability": "view",
      "type": "function",
      "constant": true
    },
    {
      "inputs": [],
      "name": "donate",
      "outputs": [],
      "stateMutability": "payable",
      "type": "function",
      "payable": true
    },
    {
      "inputs": [],
      "name": "raiseAmount",
      "outputs": [
        {
          "internalType": "uint256",
          "name": "",
          "type": "uint256"
        }
      ],
      "stateMutability": "view",
      "type": "function",
      "constant": true
    },
    {
      "inputs": [],
      "name": "getRefund",
      "outputs": [],
      "stateMutability": "nonpayable",
      "type": "function"
    },
    {
      "inputs": [
        {
          "internalType": "string",
          "name": "_purpose",
          "type": "string"
        },
        {
          "internalType": "address",
          "name": "_reciepient",
          "type": "address"
        },
        {
          "internalType": "uint256",
          "name": "_amount",
          "type": "uint256"
        }
      ],
      "name": "createRequest",
      "outputs": [],
      "stateMutability": "nonpayable",
      "type": "function"
    },
    {
      "inputs": [
        {
          "internalType": "uint256",
          "name": "_num",
          "type": "uint256"
        }
      ],
      "name": "vote",
      "outputs": [],
      "stateMutability": "nonpayable",
      "type": "function"
    },
    {
      "inputs": [
        {
          "internalType": "uint256",
          "name": "_request",
          "type": "uint256"
        }
      ],
      "name": "Transfer_funds",
      "outputs": [],
      "stateMutability": "nonpayable",
      "type": "function"
    }
  ],
  "bytecode": "0x60806040523480156200001157600080fd5b50604051620016ef380380620016ef8339818101604052810190620000379190620000da565b8160018190555080426200004c919062000150565b600281905550336000806101000a81548173ffffffffffffffffffffffffffffffffffffffff021916908373ffffffffffffffffffffffffffffffffffffffff1602179055505050620001ad565b600080fd5b6000819050919050565b620000b4816200009f565b8114620000c057600080fd5b50565b600081519050620000d481620000a9565b92915050565b60008060408385031215620000f457620000f36200009a565b5b60006200010485828601620000c3565b92505060206200011785828601620000c3565b9150509250929050565b7f4e487b7100000000000000000000000000000000000000000000000000000000600052601160045260246000fd5b60006200015d826200009f565b91506200016a836200009f565b9250827fffffffffffffffffffffffffffffffffffffffffffffffffffffffffffffffff03821115620001a257620001a162000121565b5b828201905092915050565b61153280620001bd6000396000f3fe6080604052600436106100c25760003560e01c8063992d5ad41161007f578063d4b8399211610059578063d4b8399214610242578063d845a4b31461026d578063db638f0b146102ad578063ed88c68e146102d8576100c2565b8063992d5ad4146101c5578063b2d5ae44146101ee578063ceb3560514610205576100c2565b80630121b93f146100c757806309cd9322146100f05780631b16bb5c1461011b57806329dcb0cf14610144578063481c6a751461016f578063777514511461019a575b600080fd5b3480156100d357600080fd5b506100ee60048036038101906100e99190610ab3565b6102e2565b005b3480156100fc57600080fd5b50610105610488565b6040516101129190610aef565b60405180910390f35b34801561012757600080fd5b50610142600480360381019061013d9190610cae565b61048e565b005b34801561015057600080fd5b506101596105b1565b6040516101669190610aef565b60405180910390f35b34801561017b57600080fd5b506101846105b7565b6040516101919190610d2c565b60405180910390f35b3480156101a657600080fd5b506101af6105db565b6040516101bc9190610aef565b60405180910390f35b3480156101d157600080fd5b506101ec60048036038101906101e79190610ab3565b6105e1565b005b3480156101fa57600080fd5b5061020361074d565b005b34801561021157600080fd5b5061022c60048036038101906102279190610d47565b6108af565b6040516102399190610aef565b60405180910390f35b34801561024e57600080fd5b506102576108c7565b6040516102649190610aef565b60405180910390f35b34801561027957600080fd5b50610294600480360381019061028f9190610ab3565b6108cd565b6040516102a49493929190610e1d565b60405180910390f35b3480156102b957600080fd5b506102c26109a5565b6040516102cf9190610aef565b60405180910390f35b6102e06109ad565b005b6000600660003373ffffffffffffffffffffffffffffffffffffffff1673ffffffffffffffffffffffffffffffffffffffff1681526020019081526020016000205411610364576040517f08c379a000000000000000000000000000000000000000000000000000000000815260040161035b90610eb5565b60405180910390fd5b6000600560008381526020019081526020016000209050600015158160040160003373ffffffffffffffffffffffffffffffffffffffff1673ffffffffffffffffffffffffffffffffffffffff16815260200190815260200160002060009054906101000a900460ff16151514610410576040517f08c379a000000000000000000000000000000000000000000000000000000000815260040161040790610f21565b60405180910390fd5b60018160040160003373ffffffffffffffffffffffffffffffffffffffff1673ffffffffffffffffffffffffffffffffffffffff16815260200190815260200160002060006101000a81548160ff02191690831515021790555080600301600081548092919061047f90610f70565b91905055505050565b60045481565b60008054906101000a900473ffffffffffffffffffffffffffffffffffffffff1673ffffffffffffffffffffffffffffffffffffffff163373ffffffffffffffffffffffffffffffffffffffff161461051c576040517f08c379a000000000000000000000000000000000000000000000000000000000815260040161051390611004565b60405180910390fd5b600060056000600454815260200190815260200160002090506004600081548092919061054890610f70565b91905055508381600001908161055e9190611230565b50828160010160006101000a81548173ffffffffffffffffffffffffffffffffffffffff021916908373ffffffffffffffffffffffffffffffffffffffff16021790555081816002018190555050505050565b60025481565b60008054906101000a900473ffffffffffffffffffffffffffffffffffffffff1681565b60035481565b60008054906101000a900473ffffffffffffffffffffffffffffffffffffffff1673ffffffffffffffffffffffffffffffffffffffff163373ffffffffffffffffffffffffffffffffffffffff161461066f576040517f08c379a000000000000000000000000000000000000000000000000000000000815260040161066690611004565b60405180910390fd5b600060056000838152602001908152602001600020905060026003546106959190611331565b8160030154116106da576040517f08c379a00000000000000000000000000000000000000000000000000000000081526004016106d1906113ae565b60405180910390fd5b8060010160009054906101000a900473ffffffffffffffffffffffffffffffffffffffff1673ffffffffffffffffffffffffffffffffffffffff166108fc82600201549081150290604051600060405180830381858888f19350505050158015610748573d6000803e3d6000fd5b505050565b6107556109a5565b600154118015610766575060025442115b6107a5576040517f08c379a000000000000000000000000000000000000000000000000000000000815260040161079c9061141a565b60405180910390fd5b6000600660003373ffffffffffffffffffffffffffffffffffffffff1673ffffffffffffffffffffffffffffffffffffffff1681526020019081526020016000205411610827576040517f08c379a000000000000000000000000000000000000000000000000000000000815260040161081e90611486565b60405180910390fd5b3373ffffffffffffffffffffffffffffffffffffffff166108fc600660003373ffffffffffffffffffffffffffffffffffffffff1673ffffffffffffffffffffffffffffffffffffffff168152602001908152602001600020549081150290604051600060405180830381858888f193505050501580156108ac573d6000803e3d6000fd5b50565b60066020528060005260406000206000915090505481565b60015481565b60056020528060005260406000206000915090508060000180546108f090611053565b80601f016020809104026020016040519081016040528092919081815260200182805461091c90611053565b80156109695780601f1061093e57610100808354040283529160200191610969565b820191906000526020600020905b81548152906001019060200180831161094c57829003601f168201915b5050505050908060010160009054906101000a900473ffffffffffffffffffffffffffffffffffffffff16908060020154908060030154905084565b600047905090565b6000600660003373ffffffffffffffffffffffffffffffffffffffff1673ffffffffffffffffffffffffffffffffffffffff16815260200190815260200160002054146109f957600080fd5b60036000815480929190610a0c90610f70565b919050555034600660003373ffffffffffffffffffffffffffffffffffffffff1673ffffffffffffffffffffffffffffffffffffffff1681526020019081526020016000206000828254610a6091906114a6565b92505081905550565b6000604051905090565b600080fd5b600080fd5b6000819050919050565b610a9081610a7d565b8114610a9b57600080fd5b50565b600081359050610aad81610a87565b92915050565b600060208284031215610ac957610ac8610a73565b5b6000610ad784828501610a9e565b91505092915050565b610ae981610a7d565b82525050565b6000602082019050610b046000830184610ae0565b92915050565b600080fd5b600080fd5b6000601f19601f8301169050919050565b7f4e487b7100000000000000000000000000000000000000000000000000000000600052604160045260246000fd5b610b5d82610b14565b810181811067ffffffffffffffff82111715610b7c57610b7b610b25565b5b80604052505050565b6000610b8f610a69565b9050610b9b8282610b54565b919050565b600067ffffffffffffffff821115610bbb57610bba610b25565b5b610bc482610b14565b9050602081019050919050565b82818337600083830152505050565b6000610bf3610bee84610ba0565b610b85565b905082815260208101848484011115610c0f57610c0e610b0f565b5b610c1a848285610bd1565b509392505050565b600082601f830112610c3757610c36610b0a565b5b8135610c47848260208601610be0565b91505092915050565b600073ffffffffffffffffffffffffffffffffffffffff82169050919050565b6000610c7b82610c50565b9050919050565b610c8b81610c70565b8114610c9657600080fd5b50565b600081359050610ca881610c82565b92915050565b600080600060608486031215610cc757610cc6610a73565b5b600084013567ffffffffffffffff811115610ce557610ce4610a78565b5b610cf186828701610c22565b9350506020610d0286828701610c99565b9250506040610d1386828701610a9e565b9150509250925092565b610d2681610c70565b82525050565b6000602082019050610d416000830184610d1d565b92915050565b600060208284031215610d5d57610d5c610a73565b5b6000610d6b84828501610c99565b91505092915050565b600081519050919050565b600082825260208201905092915050565b60005b83811015610dae578082015181840152602081019050610d93565b83811115610dbd576000848401525b50505050565b6000610dce82610d74565b610dd88185610d7f565b9350610de8818560208601610d90565b610df181610b14565b840191505092915050565b6000610e0782610c50565b9050919050565b610e1781610dfc565b82525050565b60006080820190508181036000830152610e378187610dc3565b9050610e466020830186610e0e565b610e536040830185610ae0565b610e606060830184610ae0565b95945050505050565b7f596f75206d757374206265206120636f6e7472696275746f7200000000000000600082015250565b6000610e9f601983610d7f565b9150610eaa82610e69565b602082019050919050565b60006020820190508181036000830152610ece81610e92565b9050919050565b7f596f75206861766520616c726561647920766f74656400000000000000000000600082015250565b6000610f0b601683610d7f565b9150610f1682610ed5565b602082019050919050565b60006020820190508181036000830152610f3a81610efe565b9050919050565b7f4e487b7100000000000000000000000000000000000000000000000000000000600052601160045260246000fd5b6000610f7b82610a7d565b91507fffffffffffffffffffffffffffffffffffffffffffffffffffffffffffffffff8203610fad57610fac610f41565b5b600182019050919050565b7f4f6e6c79206d616e616765722063616e2063616c6c0a00000000000000000000600082015250565b6000610fee601683610d7f565b9150610ff982610fb8565b602082019050919050565b6000602082019050818103600083015261101d81610fe1565b9050919050565b7f4e487b7100000000000000000000000000000000000000000000000000000000600052602260045260246000fd5b6000600282049050600182168061106b57607f821691505b60208210810361107e5761107d611024565b5b50919050565b60008190508160005260206000209050919050565b60006020601f8301049050919050565b600082821b905092915050565b6000600883026110e67fffffffffffffffffffffffffffffffffffffffffffffffffffffffffffffffff826110a9565b6110f086836110a9565b95508019841693508086168417925050509392505050565b6000819050919050565b600061112d61112861112384610a7d565b611108565b610a7d565b9050919050565b6000819050919050565b61114783611112565b61115b61115382611134565b8484546110b6565b825550505050565b600090565b611170611163565b61117b81848461113e565b505050565b5b8181101561119f57611194600082611168565b600181019050611181565b5050565b601f8211156111e4576111b581611084565b6111be84611099565b810160208510156111cd578190505b6111e16111d985611099565b830182611180565b50505b505050565b600082821c905092915050565b6000611207600019846008026111e9565b1980831691505092915050565b600061122083836111f6565b9150826002028217905092915050565b61123982610d74565b67ffffffffffffffff81111561125257611251610b25565b5b61125c8254611053565b6112678282856111a3565b600060209050601f83116001811461129a5760008415611288578287015190505b6112928582611214565b8655506112fa565b601f1984166112a886611084565b60005b828110156112d0578489015182556001820191506020850194506020810190506112ab565b868310156112ed57848901516112e9601f8916826111f6565b8355505b6001600288020188555050505b505050505050565b7f4e487b7100000000000000000000000000000000000000000000000000000000600052601260045260246000fd5b600061133c82610a7d565b915061134783610a7d565b92508261135757611356611302565b5b828204905092915050565b7f4d616a6f7269747920646f6573277420737570706f7274000000000000000000600082015250565b6000611398601783610d7f565b91506113a382611362565b602082019050919050565b600060208201905081810360008301526113c78161138b565b9050919050565b7f536f72727920796f7520617265206e6f7420656c696769626c65000000000000600082015250565b6000611404601a83610d7f565b915061140f826113ce565b602082019050919050565b60006020820190508181036000830152611433816113f7565b9050919050565b7f596f75206d75737420626520636f6e7472696275746f72000000000000000000600082015250565b6000611470601783610d7f565b915061147b8261143a565b602082019050919050565b6000602082019050818103600083015261149f81611463565b9050919050565b60006114b182610a7d565b91506114bc83610a7d565b9250827fffffffffffffffffffffffffffffffffffffffffffffffffffffffffffffffff038211156114f1576114f0610f41565b5b82820190509291505056fea26469706673582212203c251efbaf444d2b4889da90cfca4aa170fd3520e44ce820268c86f6f673049464736f6c634300080f0033",
  "immutableReferences": {},
  "source": "// SPDX-License-Identifier: GPL-3.0\npragma solidity >=0.6.0 <0.9.0;\n\ncontract crowd_funding {\n    address public manager;\n    uint256 public target;\n    uint256 public deadline;\n    uint256 public noofContributor;\n    struct Request {\n        string purpose;\n        address payable receipient;\n        uint256 amount;\n        uint256 noOfvote;\n        mapping(address => bool) voter;\n    }\n    uint256 public noOfrequest;\n    mapping(uint256 => Request) public request;\n    mapping(address => uint256) public contributor;\n\n    constructor(uint256 _amount, uint256 _deadline) {\n        target = _amount;\n        deadline = block.timestamp + _deadline;\n        manager = msg.sender;\n    }\n\n    function donate() external payable {\n        require(contributor[msg.sender] == 0);\n        noofContributor++;\n        contributor[msg.sender] += msg.value;\n    }\n\n    function raiseAmount() public view returns (uint256) {\n        return address(this).balance;\n    }\n\n    function getRefund() public {\n        require(\n            target > raiseAmount() && block.timestamp > deadline,\n            \"Sorry you are not eligible\"\n        );\n        require(contributor[msg.sender] > 0, \"You must be contributor\");\n        payable(msg.sender).transfer(contributor[msg.sender]);\n    }\n\n    modifier OnlyManager() {\n        require(msg.sender == manager, \"Only manager can call\\n\");\n        _;\n    }\n\n    function createRequest(\n        string memory _purpose,\n        address _reciepient,\n        uint256 _amount\n    ) public OnlyManager {\n        Request storage new_request = request[noOfrequest];\n        noOfrequest++;\n        new_request.purpose = _purpose;\n        new_request.receipient = payable(_reciepient);\n        new_request.amount = _amount;\n    }\n\n    function vote(uint256 _num) public {\n        require(contributor[msg.sender] > 0, \"You must be a contributor\");\n        Request storage this_request = request[_num];\n        require(\n            this_request.voter[msg.sender] == false,\n            \"You have already voted\"\n        );\n        this_request.voter[msg.sender] = true;\n        this_request.noOfvote++;\n    }\n\n    function Transfer_funds(uint256 _request) public OnlyManager{\n        Request storage fund_request = request[_request]; \n        require(\n            fund_request.noOfvote > noofContributor / 2,\n            \"Majority does't support\"\n        );\n        payable(fund_request.receipient).transfer(fund_request.amount);\n    }\n}\n",
  "sourcePath": "/home/ankitkumar/Desktop/Projects_22-23/Crowd_funding/contracts/crowd_funding.sol",
  "compiler": {
    "name": "solc",
    "version": "0.8.15+commit.e14f2714.Emscripten.clang"
  },
  "schemaVersion": "3.4.8",
  "updatedAt": "2022-07-31T17:13:42.902Z",
  "networkType": "ethereum",
  "devdoc": {
    "kind": "dev",
    "methods": {},
    "version": 1
  },
  "userdoc": {
    "kind": "user",
    "methods": {},
    "version": 1
  }
}